{
  "contractName": "vote",
  "abi": [
    {
      "inputs": [],
      "stateMutability": "nonpayable",
      "type": "constructor"
    },
    {
      "anonymous": false,
      "inputs": [
        {
          "indexed": false,
          "internalType": "uint256",
          "name": "roundId",
          "type": "uint256"
        }
      ],
      "name": "NewRoundStarted",
      "type": "event"
    },
    {
      "inputs": [],
      "name": "admin",
      "outputs": [
        {
          "internalType": "address",
          "name": "",
          "type": "address"
        }
      ],
      "stateMutability": "view",
      "type": "function",
      "constant": true
    },
    {
      "inputs": [],
      "name": "filmCount",
      "outputs": [
        {
          "internalType": "uint256",
          "name": "",
          "type": "uint256"
        }
      ],
      "stateMutability": "view",
      "type": "function",
      "constant": true
    },
    {
      "inputs": [
        {
          "internalType": "uint256",
          "name": "",
          "type": "uint256"
        }
      ],
      "name": "filmDetails",
      "outputs": [
        {
          "internalType": "uint256",
          "name": "filmId",
          "type": "uint256"
        },
        {
          "internalType": "uint256",
          "name": "voteCount",
          "type": "uint256"
        },
        {
          "internalType": "string",
          "name": "tenPhim",
          "type": "string"
        },
        {
          "internalType": "string",
          "name": "noiDung",
          "type": "string"
        },
        {
          "internalType": "string",
          "name": "quocGia",
          "type": "string"
        },
        {
          "internalType": "string",
          "name": "hinhAnh",
          "type": "string"
        },
        {
          "internalType": "string",
          "name": "ngay",
          "type": "string"
        },
        {
          "internalType": "string",
          "name": "theLoai",
          "type": "string"
        },
        {
          "internalType": "string",
          "name": "tenDD",
          "type": "string"
        },
        {
          "internalType": "string",
          "name": "tenDV",
          "type": "string"
        },
        {
          "internalType": "uint256",
          "name": "roundId",
          "type": "uint256"
        }
      ],
      "stateMutability": "view",
      "type": "function",
      "constant": true
    },
    {
      "inputs": [],
      "name": "stt",
      "outputs": [
        {
          "internalType": "uint256",
          "name": "",
          "type": "uint256"
        }
      ],
      "stateMutability": "view",
      "type": "function",
      "constant": true
    },
    {
      "inputs": [],
      "name": "getAdmin",
      "outputs": [
        {
          "internalType": "address",
          "name": "",
          "type": "address"
        }
      ],
      "stateMutability": "view",
      "type": "function",
      "constant": true
    },
    {
      "inputs": [
        {
          "internalType": "string",
          "name": "_tenPhim",
          "type": "string"
        },
        {
          "internalType": "string",
          "name": "_quocGia",
          "type": "string"
        },
        {
          "internalType": "string",
          "name": "_ngay",
          "type": "string"
        },
        {
          "internalType": "string",
          "name": "_theLoai",
          "type": "string"
        },
        {
          "internalType": "string",
          "name": "_tenDV",
          "type": "string"
        },
        {
          "internalType": "string",
          "name": "_tenDD",
          "type": "string"
        },
        {
          "internalType": "string",
          "name": "_noiDung",
          "type": "string"
        },
        {
          "internalType": "string",
          "name": "_hinhAnh",
          "type": "string"
        }
      ],
      "name": "addFilm",
      "outputs": [],
      "stateMutability": "nonpayable",
      "type": "function"
    },
    {
      "inputs": [
        {
          "internalType": "uint256",
          "name": "filmId",
          "type": "uint256"
        }
      ],
      "name": "addVote",
      "outputs": [],
      "stateMutability": "nonpayable",
      "type": "function"
    },
    {
      "inputs": [
        {
          "internalType": "uint256",
          "name": "filmId",
          "type": "uint256"
        }
      ],
      "name": "getFilm",
      "outputs": [
        {
          "internalType": "string",
          "name": "",
          "type": "string"
        },
        {
          "internalType": "string",
          "name": "",
          "type": "string"
        },
        {
          "internalType": "string",
          "name": "",
          "type": "string"
        },
        {
          "internalType": "string",
          "name": "",
          "type": "string"
        },
        {
          "internalType": "string",
          "name": "",
          "type": "string"
        },
        {
          "internalType": "string",
          "name": "",
          "type": "string"
        },
        {
          "internalType": "string",
          "name": "",
          "type": "string"
        },
        {
          "internalType": "string",
          "name": "",
          "type": "string"
        },
        {
          "internalType": "uint256",
          "name": "",
          "type": "uint256"
        }
      ],
      "stateMutability": "view",
      "type": "function",
      "constant": true
    },
    {
      "inputs": [],
      "name": "getTotalFilms",
      "outputs": [
        {
          "internalType": "uint256",
          "name": "",
          "type": "uint256"
        }
      ],
      "stateMutability": "view",
      "type": "function",
      "constant": true
    },
    {
      "inputs": [],
      "name": "startNewRound",
      "outputs": [],
      "stateMutability": "nonpayable",
      "type": "function"
    },
    {
      "inputs": [],
      "name": "getCurrentRound",
      "outputs": [
        {
          "internalType": "uint256",
          "name": "",
          "type": "uint256"
        }
      ],
      "stateMutability": "view",
      "type": "function",
      "constant": true
    }
  ],
  "bytecode": "0x608060405234801561001057600080fd5b50600080546001600160a01b03191633178155600190815560025561131d8061003a6000396000f3fe608060405234801561001057600080fd5b50600436106100a95760003560e01c80633bde3f5e116100715780633bde3f5e146101195780636e9960c314610143578063a32bf59714610158578063bd85948c14610160578063d423ea0814610168578063f851a4401461017b576100a9565b80630383badc146100ae5780630e3f9276146100c357806316ce212d146100e1578063224b5612146100e95780633351886e146100f1575b600080fd5b6100c16100bc36600461103b565b610183565b005b6100cb6101dc565b6040516100d891906111a1565b60405180910390f35b6100cb6101e2565b6100cb6101e8565b6101046100ff36600461103b565b6101ee565b6040516100d8999897969594939291906110b2565b61012c61012736600461103b565b61071b565b6040516100d89b9a999897969594939291906111aa565b61014b610bae565b6040516100d8919061109e565b6100cb610bbd565b6100c1610bc3565b6100c1610176366004610f04565b610c32565b61014b610ddb565b60015481106101ad5760405162461bcd60e51b81526004016101a49061116a565b60405180910390fd5b60016003600083815260200190815260200160002060010160008282546101d49190611272565b909155505050565b60025481565b60015490565b60015481565b606080606080606080606080600080600360008c815260200190815260200160002060405180610160016040529081600082015481526020016001820154815260200160028201805461024090611296565b80601f016020809104026020016040519081016040528092919081815260200182805461026c90611296565b80156102b95780601f1061028e576101008083540402835291602001916102b9565b820191906000526020600020905b81548152906001019060200180831161029c57829003601f168201915b505050505081526020016003820180546102d290611296565b80601f01602080910402602001604051908101604052809291908181526020018280546102fe90611296565b801561034b5780601f106103205761010080835404028352916020019161034b565b820191906000526020600020905b81548152906001019060200180831161032e57829003601f168201915b5050505050815260200160048201805461036490611296565b80601f016020809104026020016040519081016040528092919081815260200182805461039090611296565b80156103dd5780601f106103b2576101008083540402835291602001916103dd565b820191906000526020600020905b8154815290600101906020018083116103c057829003601f168201915b505050505081526020016005820180546103f690611296565b80601f016020809104026020016040519081016040528092919081815260200182805461042290611296565b801561046f5780601f106104445761010080835404028352916020019161046f565b820191906000526020600020905b81548152906001019060200180831161045257829003601f168201915b5050505050815260200160068201805461048890611296565b80601f01602080910402602001604051908101604052809291908181526020018280546104b490611296565b80156105015780601f106104d657610100808354040283529160200191610501565b820191906000526020600020905b8154815290600101906020018083116104e457829003601f168201915b5050505050815260200160078201805461051a90611296565b80601f016020809104026020016040519081016040528092919081815260200182805461054690611296565b80156105935780601f1061056857610100808354040283529160200191610593565b820191906000526020600020905b81548152906001019060200180831161057657829003601f168201915b505050505081526020016008820180546105ac90611296565b80601f01602080910402602001604051908101604052809291908181526020018280546105d890611296565b80156106255780601f106105fa57610100808354040283529160200191610625565b820191906000526020600020905b81548152906001019060200180831161060857829003601f168201915b5050505050815260200160098201805461063e90611296565b80601f016020809104026020016040519081016040528092919081815260200182805461066a90611296565b80156106b75780601f1061068c576101008083540402835291602001916106b7565b820191906000526020600020905b81548152906001019060200180831161069a57829003601f168201915b50505050508152602001600a820154815250509050806040015181608001518260c001518360e0015184610120015185610100015186606001518760a001518860200151995099509950995099509950995099509950509193959799909294969850565b6003602052600090815260409020805460018201546002830180549293919261074390611296565b80601f016020809104026020016040519081016040528092919081815260200182805461076f90611296565b80156107bc5780601f10610791576101008083540402835291602001916107bc565b820191906000526020600020905b81548152906001019060200180831161079f57829003601f168201915b5050505050908060030180546107d190611296565b80601f01602080910402602001604051908101604052809291908181526020018280546107fd90611296565b801561084a5780601f1061081f5761010080835404028352916020019161084a565b820191906000526020600020905b81548152906001019060200180831161082d57829003601f168201915b50505050509080600401805461085f90611296565b80601f016020809104026020016040519081016040528092919081815260200182805461088b90611296565b80156108d85780601f106108ad576101008083540402835291602001916108d8565b820191906000526020600020905b8154815290600101906020018083116108bb57829003601f168201915b5050505050908060050180546108ed90611296565b80601f016020809104026020016040519081016040528092919081815260200182805461091990611296565b80156109665780601f1061093b57610100808354040283529160200191610966565b820191906000526020600020905b81548152906001019060200180831161094957829003601f168201915b50505050509080600601805461097b90611296565b80601f01602080910402602001604051908101604052809291908181526020018280546109a790611296565b80156109f45780601f106109c9576101008083540402835291602001916109f4565b820191906000526020600020905b8154815290600101906020018083116109d757829003601f168201915b505050505090806007018054610a0990611296565b80601f0160208091040260200160405190810160405280929190818152602001828054610a3590611296565b8015610a825780601f10610a5757610100808354040283529160200191610a82565b820191906000526020600020905b815481529060010190602001808311610a6557829003601f168201915b505050505090806008018054610a9790611296565b80601f0160208091040260200160405190810160405280929190818152602001828054610ac390611296565b8015610b105780601f10610ae557610100808354040283529160200191610b10565b820191906000526020600020905b815481529060010190602001808311610af357829003601f168201915b505050505090806009018054610b2590611296565b80601f0160208091040260200160405190810160405280929190818152602001828054610b5190611296565b8015610b9e5780601f10610b7357610100808354040283529160200191610b9e565b820191906000526020600020905b815481529060010190602001808311610b8157829003601f168201915b50505050509080600a015490508b565b6000546001600160a01b031690565b60025490565b6000546001600160a01b03163314610bda57600080fd5b600160026000828254610bed9190611272565b909155505060006001556002546040517fae4cf40c31a833f14b2aee71da8cb55d5fd1944a9ed5b7696022328921f6e31791610c28916111a1565b60405180910390a1565b6000546001600160a01b03163314610c4957600080fd5b60006040518061016001604052806001548152602001600081526020018a815260200184815260200189815260200183815260200188815260200187815260200185815260200186815260200160025481525090508060036000600154815260200190815260200160002060008201518160000155602082015181600101556040820151816002019080519060200190610ce4929190610dea565b5060608201518051610d00916003840191602090910190610dea565b5060808201518051610d1c916004840191602090910190610dea565b5060a08201518051610d38916005840191602090910190610dea565b5060c08201518051610d54916006840191602090910190610dea565b5060e08201518051610d70916007840191602090910190610dea565b506101008201518051610d8d916008840191602090910190610dea565b506101208201518051610daa916009840191602090910190610dea565b5061014082015181600a01559050506001806000828254610dcb9190611272565b9091555050505050505050505050565b6000546001600160a01b031681565b828054610df690611296565b90600052602060002090601f016020900481019282610e185760008555610e5e565b82601f10610e3157805160ff1916838001178555610e5e565b82800160010185558215610e5e579182015b82811115610e5e578251825591602001919060010190610e43565b50610e6a929150610e6e565b5090565b5b80821115610e6a5760008155600101610e6f565b600082601f830112610e93578081fd5b813567ffffffffffffffff80821115610eae57610eae6112d1565b604051601f8301601f191681016020018281118282101715610ed257610ed26112d1565b604052828152848301602001861015610ee9578384fd5b82602086016020830137918201602001929092529392505050565b600080600080600080600080610100898b031215610f20578384fd5b883567ffffffffffffffff80821115610f37578586fd5b610f438c838d01610e83565b995060208b0135915080821115610f58578586fd5b610f648c838d01610e83565b985060408b0135915080821115610f79578586fd5b610f858c838d01610e83565b975060608b0135915080821115610f9a578586fd5b610fa68c838d01610e83565b965060808b0135915080821115610fbb578586fd5b610fc78c838d01610e83565b955060a08b0135915080821115610fdc578485fd5b610fe88c838d01610e83565b945060c08b0135915080821115610ffd578384fd5b6110098c838d01610e83565b935060e08b013591508082111561101e578283fd5b5061102b8b828c01610e83565b9150509295985092959890939650565b60006020828403121561104c578081fd5b5035919050565b60008151808452815b818110156110785760208185018101518683018201520161105c565b818111156110895782602083870101525b50601f01601f19169290920160200192915050565b6001600160a01b0391909116815260200190565b60006101208083526110c68184018d611053565b905082810360208401526110da818c611053565b905082810360408401526110ee818b611053565b90508281036060840152611102818a611053565b905082810360808401526111168189611053565b905082810360a084015261112a8188611053565b905082810360c084015261113e8187611053565b905082810360e08401526111528186611053565b915050826101008301529a9950505050505050505050565b60208082526018908201527f5068696d206b68c3b46e672074e1bb936e2074e1baa1692e0000000000000000604082015260600190565b90815260200190565b60006101608d83528c60208401528060408401526111ca8184018d611053565b905082810360608401526111de818c611053565b905082810360808401526111f2818b611053565b905082810360a0840152611206818a611053565b905082810360c084015261121a8189611053565b905082810360e084015261122e8188611053565b90508281036101008401526112438187611053565b90508281036101208401526112588186611053565b915050826101408301529c9b505050505050505050505050565b6000821982111561129157634e487b7160e01b81526011600452602481fd5b500190565b6002810460018216806112aa57607f821691505b602082108114156112cb57634e487b7160e01b600052602260045260246000fd5b50919050565b634e487b7160e01b600052604160045260246000fdfea2646970667358221220b224b2618fd4cc6584f02caba1c20936d5a298b4a44dab80d15a37032c50d9f164736f6c63430008000033",
  "immutableReferences": {},
  "source": "// SPDX-License-Identifier: MIT\r\npragma solidity >=0.4.21 <0.9.0;\r\nimport \"./voter.sol\";\r\ncontract vote {\r\n    address public admin;\r\n    uint256 public filmCount;\r\n    uint256 public stt; //bin  theo di vng bnh chn hin ti\r\n\r\n    constructor(){\r\n        admin =  msg.sender;\r\n        filmCount = 0;\r\n        stt = 1; // Bt u t vng 1\r\n    }\r\n\r\n    function getAdmin() public view returns (address) {\r\n        return admin;\r\n    }\r\n    modifier onlyAdmin() {\r\n        require(msg.sender == admin);\r\n        _;\r\n    }\r\n\r\n    struct FilmStruct {\r\n        uint256 filmId;\r\n        uint256 voteCount;\r\n        string tenPhim;\r\n        string noiDung;\r\n        string quocGia;\r\n        string hinhAnh;\r\n        string ngay;\r\n        string theLoai;\r\n        string tenDD;\r\n        string tenDV;\r\n        uint256 roundId; \r\n    }\r\n    mapping(uint256 => FilmStruct) public filmDetails;\r\n\r\n    function addFilm(string memory _tenPhim, string memory _quocGia, string memory _ngay, string memory _theLoai, string memory _tenDV,\r\n                    string memory _tenDD, string memory _noiDung, string memory _hinhAnh) public onlyAdmin {\r\n        FilmStruct memory newFilm = FilmStruct({\r\n                filmId: filmCount,\r\n                voteCount: 0,\r\n                tenPhim: _tenPhim,\r\n                quocGia: _quocGia,\r\n                ngay: _ngay,\r\n                theLoai: _theLoai,\r\n                tenDV: _tenDV,\r\n                tenDD: _tenDD,\r\n                noiDung: _noiDung,\r\n                hinhAnh: _hinhAnh,\r\n                roundId: stt\r\n        });\r\n        filmDetails[filmCount] = newFilm;\r\n        filmCount += 1;\r\n    }\r\n\r\n    function addVote(uint256 filmId) public {\r\n        require(filmId < filmCount, unicode\"Phim khng tn ti.\");\r\n        filmDetails[filmId].voteCount += 1;\r\n    }\r\n\r\n    function getFilm(uint256 filmId) public view returns (string memory, string memory, string memory, \r\n                    string memory, string memory, string memory, string memory, string memory, uint256) {\r\n        FilmStruct memory film = filmDetails[filmId];\r\n        return (film.tenPhim, film.quocGia, film.ngay, film.theLoai, film.tenDV, film.tenDD, film.noiDung, film.hinhAnh, film.voteCount);\r\n    }\r\n\r\n    function getTotalFilms() public view returns (uint256) {\r\n        return filmCount;\r\n    }\r\n    \r\n    event NewRoundStarted(uint256 roundId);\r\n    function startNewRound() public onlyAdmin {\r\n        stt += 1;\r\n        filmCount=0;\r\n        emit NewRoundStarted(stt);\r\n    }\r\n\r\n    function getCurrentRound() public view returns (uint256) {\r\n        return stt; \r\n    }\r\n\r\n}\r\n",
  "sourcePath": "D:\\LuanVan\\myProject\\blockchain_film\\contracts\\vote.sol",
  "compiler": {
    "name": "solc",
    "version": "0.8.0+commit.c7dfd78e.Emscripten.clang"
  },
  "schemaVersion": "3.4.16",
  "updatedAt": "2024-12-09T05:17:53.918Z",
  "networkType": "ethereum",
  "devdoc": {
    "kind": "dev",
    "methods": {},
    "version": 1
  },
  "userdoc": {
    "kind": "user",
    "methods": {},
    "version": 1
  }
}