{
  "contractName": "voter",
  "abi": [
    {
      "inputs": [],
      "stateMutability": "nonpayable",
      "type": "constructor"
    },
    {
      "anonymous": false,
      "inputs": [],
      "name": "ElectionEnded",
      "type": "event"
    },
    {
      "anonymous": false,
      "inputs": [
        {
          "indexed": false,
          "internalType": "string",
          "name": "adminName",
          "type": "string"
        },
        {
          "indexed": false,
          "internalType": "string",
          "name": "adminEmail",
          "type": "string"
        },
        {
          "indexed": false,
          "internalType": "string",
          "name": "electionTitle",
          "type": "string"
        },
        {
          "indexed": false,
          "internalType": "uint256",
          "name": "startDate",
          "type": "uint256"
        },
        {
          "indexed": false,
          "internalType": "uint256",
          "name": "endDate",
          "type": "uint256"
        }
      ],
      "name": "ElectionStarted",
      "type": "event"
    },
    {
      "anonymous": false,
      "inputs": [
        {
          "indexed": true,
          "internalType": "address",
          "name": "voterAddress",
          "type": "address"
        },
        {
          "indexed": false,
          "internalType": "uint256",
          "name": "filmId",
          "type": "uint256"
        }
      ],
      "name": "FilmVoted",
      "type": "event"
    },
    {
      "anonymous": false,
      "inputs": [
        {
          "indexed": true,
          "internalType": "address",
          "name": "voterAddress",
          "type": "address"
        }
      ],
      "name": "VoterRegistered",
      "type": "event"
    },
    {
      "inputs": [],
      "name": "admin",
      "outputs": [
        {
          "internalType": "address",
          "name": "",
          "type": "address"
        }
      ],
      "stateMutability": "view",
      "type": "function",
      "constant": true
    },
    {
      "inputs": [],
      "name": "electionDetails",
      "outputs": [
        {
          "internalType": "string",
          "name": "adminName",
          "type": "string"
        },
        {
          "internalType": "string",
          "name": "adminEmail",
          "type": "string"
        },
        {
          "internalType": "string",
          "name": "electionTitle",
          "type": "string"
        }
      ],
      "stateMutability": "view",
      "type": "function",
      "constant": true
    },
    {
      "inputs": [],
      "name": "end",
      "outputs": [
        {
          "internalType": "bool",
          "name": "",
          "type": "bool"
        }
      ],
      "stateMutability": "view",
      "type": "function",
      "constant": true
    },
    {
      "inputs": [],
      "name": "endDate",
      "outputs": [
        {
          "internalType": "uint256",
          "name": "",
          "type": "uint256"
        }
      ],
      "stateMutability": "view",
      "type": "function",
      "constant": true
    },
    {
      "inputs": [
        {
          "internalType": "bytes32",
          "name": "",
          "type": "bytes32"
        }
      ],
      "name": "registeredCCCDHashes",
      "outputs": [
        {
          "internalType": "address",
          "name": "",
          "type": "address"
        }
      ],
      "stateMutability": "view",
      "type": "function",
      "constant": true
    },
    {
      "inputs": [],
      "name": "start",
      "outputs": [
        {
          "internalType": "bool",
          "name": "",
          "type": "bool"
        }
      ],
      "stateMutability": "view",
      "type": "function",
      "constant": true
    },
    {
      "inputs": [],
      "name": "startDate",
      "outputs": [
        {
          "internalType": "uint256",
          "name": "",
          "type": "uint256"
        }
      ],
      "stateMutability": "view",
      "type": "function",
      "constant": true
    },
    {
      "inputs": [],
      "name": "voterCount",
      "outputs": [
        {
          "internalType": "uint256",
          "name": "",
          "type": "uint256"
        }
      ],
      "stateMutability": "view",
      "type": "function",
      "constant": true
    },
    {
      "inputs": [
        {
          "internalType": "address",
          "name": "",
          "type": "address"
        }
      ],
      "name": "voterDetails",
      "outputs": [
        {
          "internalType": "address",
          "name": "voterAddress",
          "type": "address"
        },
        {
          "internalType": "string",
          "name": "name",
          "type": "string"
        },
        {
          "internalType": "bytes32",
          "name": "cccdHash",
          "type": "bytes32"
        },
        {
          "internalType": "bytes32",
          "name": "passwordHash",
          "type": "bytes32"
        },
        {
          "internalType": "bool",
          "name": "hasVoted",
          "type": "bool"
        },
        {
          "internalType": "bool",
          "name": "isRegistered",
          "type": "bool"
        },
        {
          "internalType": "uint256",
          "name": "roundVoted",
          "type": "uint256"
        }
      ],
      "stateMutability": "view",
      "type": "function",
      "constant": true
    },
    {
      "inputs": [
        {
          "internalType": "uint256",
          "name": "",
          "type": "uint256"
        }
      ],
      "name": "voters",
      "outputs": [
        {
          "internalType": "address",
          "name": "",
          "type": "address"
        }
      ],
      "stateMutability": "view",
      "type": "function",
      "constant": true
    },
    {
      "inputs": [],
      "name": "getAdmin",
      "outputs": [
        {
          "internalType": "address",
          "name": "",
          "type": "address"
        }
      ],
      "stateMutability": "view",
      "type": "function",
      "constant": true
    },
    {
      "inputs": [
        {
          "internalType": "string",
          "name": "_name",
          "type": "string"
        },
        {
          "internalType": "bytes32",
          "name": "_cccdHash",
          "type": "bytes32"
        },
        {
          "internalType": "bytes32",
          "name": "_passwordHash",
          "type": "bytes32"
        }
      ],
      "name": "registerAsVoter",
      "outputs": [],
      "stateMutability": "nonpayable",
      "type": "function"
    },
    {
      "inputs": [
        {
          "internalType": "address",
          "name": "_voter",
          "type": "address"
        }
      ],
      "name": "getVoterDetails",
      "outputs": [
        {
          "internalType": "string",
          "name": "name",
          "type": "string"
        },
        {
          "internalType": "bytes32",
          "name": "cccdHash",
          "type": "bytes32"
        },
        {
          "internalType": "bool",
          "name": "hasVoted",
          "type": "bool"
        },
        {
          "internalType": "bool",
          "name": "isRegistered",
          "type": "bool"
        }
      ],
      "stateMutability": "view",
      "type": "function",
      "constant": true
    },
    {
      "inputs": [
        {
          "internalType": "bytes32",
          "name": "_cccdHash",
          "type": "bytes32"
        }
      ],
      "name": "getRegisteredCCCDHash",
      "outputs": [
        {
          "internalType": "address",
          "name": "",
          "type": "address"
        }
      ],
      "stateMutability": "view",
      "type": "function",
      "constant": true
    },
    {
      "inputs": [
        {
          "internalType": "address",
          "name": "_voterAddress",
          "type": "address"
        },
        {
          "internalType": "string",
          "name": "_password",
          "type": "string"
        }
      ],
      "name": "authenticateVoter",
      "outputs": [
        {
          "internalType": "bool",
          "name": "",
          "type": "bool"
        }
      ],
      "stateMutability": "view",
      "type": "function",
      "constant": true
    },
    {
      "inputs": [],
      "name": "getTotalVoters",
      "outputs": [
        {
          "internalType": "uint256",
          "name": "",
          "type": "uint256"
        }
      ],
      "stateMutability": "view",
      "type": "function",
      "constant": true
    },
    {
      "inputs": [],
      "name": "resetVoterStatus",
      "outputs": [],
      "stateMutability": "nonpayable",
      "type": "function"
    },
    {
      "inputs": [
        {
          "internalType": "bytes32",
          "name": "_cccdHash",
          "type": "bytes32"
        }
      ],
      "name": "isCCCDRegistered",
      "outputs": [
        {
          "internalType": "bool",
          "name": "",
          "type": "bool"
        }
      ],
      "stateMutability": "view",
      "type": "function",
      "constant": true
    },
    {
      "inputs": [
        {
          "internalType": "uint256",
          "name": "filmId",
          "type": "uint256"
        },
        {
          "internalType": "address",
          "name": "filmContractAddress",
          "type": "address"
        }
      ],
      "name": "voteFilm",
      "outputs": [],
      "stateMutability": "nonpayable",
      "type": "function"
    },
    {
      "inputs": [
        {
          "internalType": "string",
          "name": "_adminName",
          "type": "string"
        },
        {
          "internalType": "string",
          "name": "_adminEmail",
          "type": "string"
        },
        {
          "internalType": "string",
          "name": "_electionTitle",
          "type": "string"
        },
        {
          "internalType": "uint256",
          "name": "_startDate",
          "type": "uint256"
        },
        {
          "internalType": "uint256",
          "name": "_endDate",
          "type": "uint256"
        }
      ],
      "name": "setElectionDetails",
      "outputs": [],
      "stateMutability": "nonpayable",
      "type": "function"
    },
    {
      "inputs": [],
      "name": "getElectionDetails",
      "outputs": [
        {
          "internalType": "string",
          "name": "",
          "type": "string"
        },
        {
          "internalType": "string",
          "name": "",
          "type": "string"
        },
        {
          "internalType": "string",
          "name": "",
          "type": "string"
        },
        {
          "internalType": "uint256",
          "name": "",
          "type": "uint256"
        },
        {
          "internalType": "uint256",
          "name": "",
          "type": "uint256"
        }
      ],
      "stateMutability": "view",
      "type": "function",
      "constant": true
    },
    {
      "inputs": [],
      "name": "endElection",
      "outputs": [],
      "stateMutability": "nonpayable",
      "type": "function"
    },
    {
      "inputs": [],
      "name": "getStart",
      "outputs": [
        {
          "internalType": "bool",
          "name": "",
          "type": "bool"
        }
      ],
      "stateMutability": "view",
      "type": "function",
      "constant": true
    },
    {
      "inputs": [],
      "name": "getEnd",
      "outputs": [
        {
          "internalType": "bool",
          "name": "",
          "type": "bool"
        }
      ],
      "stateMutability": "view",
      "type": "function",
      "constant": true
    }
  ],
  "bytecode": "0x608060405234801561001057600080fd5b50600080546001600160a01b031916331781556001556002805461ffff191690556116d8806100406000396000f3fe608060405234801561001057600080fd5b50600436106101585760003560e01c8063a760fdae116100c3578063c6fc9c021161007c578063c6fc9c021461029e578063cdd11fbf146102b1578063da58c7d9146102c4578063ed836bc3146102d7578063efbe1c1c146102f0578063f851a440146102f857610158565b8063a760fdae1461023d578063aaf4eadb14610250578063ba71bef014610263578063be9a655514610286578063c24a0f8b1461028e578063c5292c671461029657610158565b80636d2f6966116101155780636d2f6966146101d95780636e9960c3146101f0578063793cf2181461020557806382990d431461020d57806386779545146102205780639f05a36d1461022857610158565b80630b97bc861461015d5780630e9fab171461017b57806342169e481461019057806350fcfb3d146101985780635938750d146101ab57806359f78468146101d1575b600080fd5b610165610300565b60405161017291906115cf565b60405180910390f35b61018e61018936600461120c565b610306565b005b610165610426565b61018e6101a63660046112ba565b61042c565b6101be6101b936600461113b565b610634565b6040516101729796959493929190611341565b61018e610709565b6101e1610773565b604051610172939291906113cd565b6101f8610921565b604051610172919061132d565b610165610930565b6101f861021b3660046111a8565b610936565b61018e610951565b6102306109ed565b6040516101729190611391565b61018e61024b3660046111c0565b6109fb565b61023061025e3660046111a8565b610bda565b61027661027136600461113b565b610bfa565b604051610172949392919061139c565b610230610d32565b610165610d3b565b610230610d41565b6102306102ac36600461115c565b610d4a565b6101f86102bf3660046111a8565b610dd6565b6101f86102d23660046111a8565b610df1565b6102df610e1b565b604051610172959493929190611410565b610230610fed565b6101f8610ffb565b60035481565b6000546001600160a01b031633146103395760405162461bcd60e51b815260040161033090611495565b60405180910390fd5b8082106103585760405162461bcd60e51b81526004016103309061158c565b60408051606081018252868152602080820187905291810185905286519091600591610389918391908a019061100a565b5060208281015180516103a2926001850192019061100a565b50604082015180516103be91600284019160209091019061100a565b50506002805461ff001960ff1990911660011716905550600382905560048190556040517f399c5987fbec56f2d66bc77a9cf9aed8d839053c60b6aef46050e5b7f0485f21906104179087908790879087908790611410565b60405180910390a15050505050565b60015481565b3360009081526009602052604090206004015460ff1615806104d05750806001600160a01b0316630e3f92766040518163ffffffff1660e01b815260040160206040518083038186803b15801561048257600080fd5b505afa158015610496573d6000803e3d6000fd5b505050506040513d601f19601f820116820180604052508101906104ba91906112a2565b3360009081526009602052604090206005015414155b6104ec5760405162461bcd60e51b8152600401610330906114d8565b60405162e0eeb760e21b815281906001600160a01b03821690630383badc906105199086906004016115cf565b600060405180830381600087803b15801561053357600080fd5b505af1158015610547573d6000803e3d6000fd5b5050336000908152600960209081526040918290206004908101805460ff19166001179055825163071fc93b60e11b815292516001600160a01b0387169550630e3f9276945083820193909190829003018186803b1580156105a857600080fd5b505afa1580156105bc573d6000803e3d6000fd5b505050506040513d601f19601f820116820180604052508101906105e091906112a2565b33600081815260096020526040908190206005019290925590517f97a1be28fd6e40b758a30702adafeb69e8634114ae857ec815b223ac05c55e6e906106279086906115cf565b60405180910390a2505050565b600960205260009081526040902080546001820180546001600160a01b03909216929161066090611620565b80601f016020809104026020016040519081016040528092919081815260200182805461068c90611620565b80156106d95780601f106106ae576101008083540402835291602001916106d9565b820191906000526020600020905b8154815290600101906020018083116106bc57829003601f168201915b505050506002830154600384015460048501546005909501549394919390925060ff808316926101009004169087565b6000546001600160a01b031633146107335760405162461bcd60e51b815260040161033090611495565b6002805460ff1961ff0019909116610100171690556040517f66ec723071e4bb646f7b35d31bc2dee8510979bd8c180edd0690d4f5e802f1e490600090a1565b60058054819061078290611620565b80601f01602080910402602001604051908101604052809291908181526020018280546107ae90611620565b80156107fb5780601f106107d0576101008083540402835291602001916107fb565b820191906000526020600020905b8154815290600101906020018083116107de57829003601f168201915b50505050509080600101805461081090611620565b80601f016020809104026020016040519081016040528092919081815260200182805461083c90611620565b80156108895780601f1061085e57610100808354040283529160200191610889565b820191906000526020600020905b81548152906001019060200180831161086c57829003601f168201915b50505050509080600201805461089e90611620565b80601f01602080910402602001604051908101604052809291908181526020018280546108ca90611620565b80156109175780601f106108ec57610100808354040283529160200191610917565b820191906000526020600020905b8154815290600101906020018083116108fa57829003601f168201915b5050505050905083565b6000546001600160a01b031690565b60015490565b600a602052600090815260409020546001600160a01b031681565b6000546001600160a01b0316331461097b5760405162461bcd60e51b815260040161033090611495565b60005b6008548110156109ea576000600882815481106109ab57634e487b7160e01b600052603260045260246000fd5b60009182526020808320909101546001600160a01b031682526009905260409020600401805460ff1916905550806109e28161165b565b91505061097e565b50565b600254610100900460ff1690565b33600090815260096020526040902060040154610100900460ff1615610a335760405162461bcd60e51b81526004016103309061145e565b6000828152600a60205260409020546001600160a01b031615610a685760405162461bcd60e51b815260040161033090611555565b6040805160e08101825233808252602080830187815283850187905260608401869052600060808501819052600160a0860181905260c086018290529381526009835294909420835181546001600160a01b0319166001600160a01b0390911617815593518051939485949093610ae49390850192019061100a565b50604082810151600283015560608301516003830155608083015160048301805460a086015115156101000261ff001993151560ff19909216919091179290921691909117905560c0909201516005909101556000848152600a60205290812080546001600160a01b03199081163390811790925560088054600181810183559185527ff3f7a9fe364faab93b216da50a3214154f22a0a2b415b23a84c8169e8b636ee30180549092169092179055805490918291610ba49083906115d8565b909155505060405133907fb6be2187d059cc2a55fe29e0e503b566e1e0f8c8780096e185429350acffd3dd90600090a250505050565b6000818152600a60205260409020546001600160a01b031615155b919050565b6001600160a01b038082166000908152600960209081526040808320815160e0810190925280549094168152600184018054606095859485948594909391840191610c4490611620565b80601f0160208091040260200160405190810160405280929190818152602001828054610c7090611620565b8015610cbd5780601f10610c9257610100808354040283529160200191610cbd565b820191906000526020600020905b815481529060010190602001808311610ca057829003601f168201915b505050918352505060028201546020808301919091526003830154604080840191909152600484015460ff8082161515606086015261010090910416151560808085019190915260059094015460a0938401529084015190840151928401519390910151909991985091965090945092505050565b60025460ff1681565b60045481565b60025460ff1690565b6001600160a01b038216600090815260096020526040812060040154610100900460ff16610d8a5760405162461bcd60e51b81526004016103309061151e565b81604051602001610d9b9190611311565b60408051601f1981840301815291815281516020928301206001600160a01b0386166000908152600990935291206003015414905092915050565b6000908152600a60205260409020546001600160a01b031690565b60088181548110610e0157600080fd5b6000918252602090912001546001600160a01b0316905081565b6060806060600080600560000160056001016005600201600354600454848054610e4490611620565b80601f0160208091040260200160405190810160405280929190818152602001828054610e7090611620565b8015610ebd5780601f10610e9257610100808354040283529160200191610ebd565b820191906000526020600020905b815481529060010190602001808311610ea057829003601f168201915b50505050509450838054610ed090611620565b80601f0160208091040260200160405190810160405280929190818152602001828054610efc90611620565b8015610f495780601f10610f1e57610100808354040283529160200191610f49565b820191906000526020600020905b815481529060010190602001808311610f2c57829003601f168201915b50505050509350828054610f5c90611620565b80601f0160208091040260200160405190810160405280929190818152602001828054610f8890611620565b8015610fd55780601f10610faa57610100808354040283529160200191610fd5565b820191906000526020600020905b815481529060010190602001808311610fb857829003601f168201915b50505050509250945094509450945094509091929394565b600254610100900460ff1681565b6000546001600160a01b031681565b82805461101690611620565b90600052602060002090601f016020900481019282611038576000855561107e565b82601f1061105157805160ff191683800117855561107e565b8280016001018555821561107e579182015b8281111561107e578251825591602001919060010190611063565b5061108a92915061108e565b5090565b5b8082111561108a576000815560010161108f565b80356001600160a01b0381168114610bf557600080fd5b600082601f8301126110ca578081fd5b813567ffffffffffffffff808211156110e5576110e561168c565b604051601f8301601f1916810160200182811182821017156111095761110961168c565b604052828152848301602001861015611120578384fd5b82602086016020830137918201602001929092529392505050565b60006020828403121561114c578081fd5b611155826110a3565b9392505050565b6000806040838503121561116e578081fd5b611177836110a3565b9150602083013567ffffffffffffffff811115611192578182fd5b61119e858286016110ba565b9150509250929050565b6000602082840312156111b9578081fd5b5035919050565b6000806000606084860312156111d4578081fd5b833567ffffffffffffffff8111156111ea578182fd5b6111f6868287016110ba565b9660208601359650604090950135949350505050565b600080600080600060a08688031215611223578081fd5b853567ffffffffffffffff8082111561123a578283fd5b61124689838a016110ba565b9650602088013591508082111561125b578283fd5b61126789838a016110ba565b9550604088013591508082111561127c578283fd5b50611289888289016110ba565b9598949750949560608101359550608001359392505050565b6000602082840312156112b3578081fd5b5051919050565b600080604083850312156112cc578182fd5b823591506112dc602084016110a3565b90509250929050565b600081518084526112fd8160208601602086016115f0565b601f01601f19169290920160200192915050565b600082516113238184602087016115f0565b9190910192915050565b6001600160a01b0391909116815260200190565b6001600160a01b038816815260e060208201819052600090611365908301896112e5565b60408301979097525060608101949094529115156080840152151560a083015260c09091015292915050565b901515815260200190565b6000608082526113af60808301876112e5565b60208301959095525091151560408301521515606090910152919050565b6000606082526113e060608301866112e5565b82810360208401526113f281866112e5565b9050828103604084015261140681856112e5565b9695505050505050565b600060a0825261142360a08301886112e5565b828103602084015261143581886112e5565b9050828103604084015261144981876112e5565b60608401959095525050608001529392505050565b60208082526019908201527f566f74657220616c726561647920726567697374657265642e00000000000000604082015260600190565b60208082526023908201527f4f6e6c792061646d696e2063616e20706572666f726d2074686973206163746960408201526237b71760e91b606082015260800190565b60208082526026908201527f566f7465722068617320616c726561647920766f74656420696e2074686973206040820152653937bab7321760d11b606082015260800190565b60208082526018908201527f566f746572206973206e6f7420726567697374657265642e0000000000000000604082015260600190565b60208082526018908201527f4343434420616c726561647920726567697374657265642e0000000000000000604082015260600190565b60208082526023908201527f53746172742064617465206d757374206265206265666f726520656e642064616040820152623a329760e91b606082015260800190565b90815260200190565b600082198211156115eb576115eb611676565b500190565b60005b8381101561160b5781810151838201526020016115f3565b8381111561161a576000848401525b50505050565b60028104600182168061163457607f821691505b6020821081141561165557634e487b7160e01b600052602260045260246000fd5b50919050565b600060001982141561166f5761166f611676565b5060010190565b634e487b7160e01b600052601160045260246000fd5b634e487b7160e01b600052604160045260246000fdfea2646970667358221220db904ba13ac451db7752052343cbab6fac9e7ea9132819d73bfad5563b25cf2d64736f6c63430008000033",
  "immutableReferences": {},
  "source": "// SPDX-License-Identifier: MIT\r\npragma solidity >=0.4.21 <0.9.0;\r\nimport \"./vote.sol\";\r\n\r\ncontract voter {\r\n    address public admin;\r\n    uint256 public voterCount;\r\n    bool public start;\r\n    bool public end;\r\n    uint256 public startDate;\r\n    uint256 public endDate;\r\n\r\n    struct ElectionDetails {\r\n        string adminName;\r\n        string adminEmail;\r\n        string electionTitle;\r\n    }\r\n    ElectionDetails public electionDetails;\r\n\r\n    constructor(){\r\n        admin = msg.sender;\r\n        voterCount = 0;\r\n        start = false;\r\n        end = false;\r\n    }\r\n\r\n    modifier onlyAdmin() {\r\n        require(msg.sender == admin, \"Only admin can perform this action.\");\r\n        _;\r\n    }\r\n\r\n    modifier duringElection() {\r\n        require(start, \"Election has not started.\");\r\n        require(!end, \"Election has ended.\");\r\n        require(block.timestamp >= startDate && block.timestamp <= endDate, \"Election is not active.\");\r\n        _;\r\n    }\r\n\r\n    function getAdmin() public view returns (address) {\r\n        return admin;\r\n    }\r\n\r\n    struct VoterDetails {\r\n        address voterAddress;\r\n        string name;\r\n        bytes32 cccdHash;\r\n        bytes32 passwordHash;\r\n        bool hasVoted;\r\n        bool isRegistered;\r\n        uint256 roundVoted; \r\n    }\r\n\r\n    address[] public voters;\r\n    mapping(address => VoterDetails) public voterDetails;\r\n    mapping(bytes32 => address) public registeredCCCDHashes;\r\n\r\n    event VoterRegistered(address indexed voterAddress);\r\n    event FilmVoted(address indexed voterAddress, uint256 filmId);\r\n    event ElectionStarted(string adminName, string adminEmail, string electionTitle, uint256 startDate, uint256 endDate);\r\n    event ElectionEnded();\r\n\r\n    function registerAsVoter(string memory _name, bytes32 _cccdHash, bytes32 _passwordHash) public {\r\n        // Kim tra ngi dng  ng k cha\r\n        require(!voterDetails[msg.sender].isRegistered, \"Voter already registered.\");\r\n        // Kim tra CCCD  tn ti hay cha\r\n         require(registeredCCCDHashes[_cccdHash] == address(0), \"CCCD already registered.\");\r\n        VoterDetails memory newVoter = VoterDetails({\r\n            voterAddress: msg.sender,\r\n            name: _name,\r\n            cccdHash: _cccdHash,\r\n            passwordHash: _passwordHash,\r\n            hasVoted: false,\r\n            isRegistered: true,\r\n            roundVoted: 0 // Mc nh cha b phiu vng no\r\n        });\r\n        voterDetails[msg.sender] = newVoter;\r\n        registeredCCCDHashes[_cccdHash] = msg.sender;\r\n        voters.push(msg.sender);\r\n        voterCount += 1;\r\n        emit VoterRegistered(msg.sender);\r\n    }\r\n\r\n    function getVoterDetails(address _voter) public view returns (string memory name, bytes32 cccdHash, bool hasVoted,bool isRegistered) {\r\n        VoterDetails memory voterInfo = voterDetails[_voter];\r\n        return (voterInfo.name, voterInfo.cccdHash, voterInfo.hasVoted, voterInfo.isRegistered);\r\n    }\r\n\r\n    function getRegisteredCCCDHash(bytes32 _cccdHash) public view returns (address) {\r\n        return registeredCCCDHashes[_cccdHash];\r\n    }\r\n\r\n    // Xc thc mt khu\r\n    function authenticateVoter(address _voterAddress, string memory _password) public view returns (bool) {\r\n        require(voterDetails[_voterAddress].isRegistered, \"Voter is not registered.\");\r\n        return (voterDetails[_voterAddress].passwordHash == keccak256(abi.encodePacked(_password)));\r\n    }\r\n\r\n    function getTotalVoters() public view returns (uint256) {\r\n        return voterCount;\r\n    }\r\n\r\n    function resetVoterStatus() public onlyAdmin {\r\n        for (uint256 i = 0; i < voters.length; i++) {\r\n            address voterAddress = voters[i];\r\n            voterDetails[voterAddress].hasVoted = false;\r\n        }\r\n    }\r\n    \r\n    function isCCCDRegistered(bytes32 _cccdHash) public view returns (bool) {\r\n        return registeredCCCDHashes[_cccdHash] != address(0);\r\n    }\r\n\r\n    function voteFilm(uint256 filmId, address filmContractAddress) public {\r\n        require(!voterDetails[msg.sender].hasVoted || voterDetails[msg.sender].roundVoted != vote(filmContractAddress).stt(), \"Voter has already voted in this round.\");\r\n\r\n        vote filmContract = vote(filmContractAddress);\r\n        filmContract.addVote(filmId);\r\n        voterDetails[msg.sender].hasVoted = true;\r\n        voterDetails[msg.sender].roundVoted = filmContract.stt();  // Cp nht vng  b phiu\r\n        emit FilmVoted(msg.sender, filmId);\r\n    }\r\n\r\n    function setElectionDetails(string memory _adminName, string memory _adminEmail, string memory _electionTitle, uint256 _startDate, uint256 _endDate) public onlyAdmin {\r\n        require(_startDate < _endDate, \"Start date must be before end date.\");\r\n        electionDetails = ElectionDetails(_adminName, _adminEmail, _electionTitle);\r\n        start = true;\r\n        end = false;\r\n        startDate = _startDate;\r\n        endDate = _endDate;\r\n        emit ElectionStarted(_adminName, _adminEmail, _electionTitle, _startDate, _endDate);\r\n    }\r\n\r\n    function getElectionDetails() public view returns (string memory, string memory, string memory, uint256, uint256) {\r\n        return (electionDetails.adminName, electionDetails.adminEmail, electionDetails.electionTitle, startDate, endDate);\r\n    }\r\n\r\n    function endElection() public onlyAdmin {\r\n        end = true;\r\n        start = false;\r\n        emit ElectionEnded();\r\n    }\r\n\r\n    function getStart() public view returns (bool) {\r\n        return start;\r\n    }\r\n\r\n    function getEnd() public view returns (bool) {\r\n        return end;\r\n    }\r\n}\r\n",
  "sourcePath": "D:\\LuanVan\\myProject\\blockchain_film\\contracts\\voter.sol",
  "compiler": {
    "name": "solc",
    "version": "0.8.0+commit.c7dfd78e.Emscripten.clang"
  },
  "schemaVersion": "3.4.16",
  "updatedAt": "2024-12-09T05:17:54.177Z",
  "networkType": "ethereum",
  "devdoc": {
    "kind": "dev",
    "methods": {},
    "version": 1
  },
  "userdoc": {
    "kind": "user",
    "methods": {},
    "version": 1
  }
}